:020000040800F2
:10000000283C0120E1020008752C0008D5270008D3
:10001000552C00084D170008E53B000800000000C3
:10002000000000000000000000000000D92F0008C0
:10003000512600080000000095020008E130000889
:10004000FB020008FB020008FB020008FB0200089C
:10005000FB020008FB020008FB020008FB0200088C
:10006000FB020008FB020008FB020008FB0200087C
:10007000FB020008FB020008FB020008FB0200086C
:10008000FB020008FB020008FB02000881190008BF
:1000900011180008FB020008FB020008FB02000820
:1000A000FB020008FB020008FB020008FB0200083C
:1000B000FB020008FB020008FB020008FB0200082C
:1000C000FB020008FB020008FB020008FB0200081C
:1000D000FB02000875350008B53500083D360008FC
:1000E000FB020008FB020008FB02000825330008A1
:1000F000FB020008FB020008FB020008FB020008EC
:10010000FB020008FB020008FB020008FB020008DB
:10011000F534000835350008FB020008FB02000832
:10012000FB020008FB0200086D250008FB02000826
:10013000FB020008FB020008FB020008951E0008F5
:10014000491A0008FB020008FB020008FB02000835
:10015000FB020008FB020008FB020008C53600088D
:10016000FB020008FB020008FB020008FB0200087B
:10017000FB020008FB020008FB020008FB0200086B
:10018000FB020008C126000800F002F800F072F837
:100190000AA090E8000C82448344AAF10107DA45E2
:1001A00001D100F067F8AFF2090EBAE80F0013F0C2
:1001B000010F18BFFB1A43F0010318477C5E0000D3
:1001C0009C5E00000A444FF0000C10F8013B13F055
:1001D000070408BF10F8014B1D1108BF10F8015BA0
:1001E000641E05D010F8016B641E01F8016BF9D193
:1001F00013F0080F1EBF10F8014BAD1C0C1B09D1EA
:100200006D1E58BF01F801CBFAD505E014F8016B5B
:1002100001F8016B6D1EF9D59142D6D370470000ED
:100220000023002400250026103A28BF78C1FBD8FF
:10023000520728BF30C148BF0B607047662905F0E0
:100240003F86642900F0A480782900F00681732994
:1002500000F01285002070471FB505F02CFE00F05D
:1002600025FD04000020002105F05AFCE0601FBDC0
:1002700010B510BD00F014FE1146FFF7EDFF04F0BD
:100280003FF800F032FE03B4FFF7F2FF03BC03F0C7
:10029000DAFC000072B6EFF3098050B11EF0100FC7
:1002A00008BF20ED108A203880E8F00F0A4909685D
:1002B0000860094809490A680260106890E8F00F70
:1002C00020301EF0100F08BFB0EC108A80F30988B0
:1002D0004EF0040E62B670471C030020200300207D
:1002E0000948804709480047FEE7FEE7FEE7FEE7CA
:1002F000FEE7FEE7FEE7FEE7FEE7FEE70448054906
:10030000054A064B70470000F130000889010008DB
:1003100028360120283C01202838012028380120D7
:10032000704700000FB4044910B503AA029800F00A
:10033000A7FC10BC5DF814FBEC02002070B50C4665
:100340000546012A05D02878800600D5EA690023F1
:1003500002E0012305E05B1C934202D2E05C00282E
:10036000F9D1A869E618C01AA861286A1844286259
:100370002846AFF3008004E0D5E9012114F8010B11
:100380009047B442F8D32846AFF3008070BD000018
:100390002DE9F0410646002410687529314615A55F
:1003A00010D0AFF30080002802DA404212A507E027
:1003B00031688A0701D511A502E0490704D510A5C7
:1003C000012401E0AFF3008000210A2306F1240795
:1003D00007E0B0FBF3F203FB120030307854104614
:1003E000491C0028F5D123462A463046BDE8F04195
:1003F00000F0B4B9000000002D0000002B00000048
:1004000020000000F0B40D460188090502D5214CFA
:100410007C4402E01F4C7C440E34002100F1240691
:1004200008E002F00F071209E75D42EA03721B09B8
:100430007754491C52EA0307F3D1027800231207CC
:1004400004D5702D06D009B1022311342246F0BC28
:1004500000F084B901231034F8E770B504460D4666
:1004600021461068AFF30080024629462046BDE8C9
:1004700070400023C6E7D21D22F00703D3E9002312
:10048000C0E70368126843F0200303600823C361D8
:100490000023B7E7D45A00002DE9F05F89460446EF
:1004A0004FF0000ADFF874B1FB44C0F820A02046EA
:1004B000E1688847002874D0252806D0D4E90121B6
:1004C0009047206A401C2062F1E700265F462046E4
:1004D000E16888472028054607DB312D05D27819C9
:1004E00010F8200C08B10643F1E7B00701D526F05B
:1004F0000406C4F81CA00027C4F818A02A2D09D0AF
:10050000284603F099FB38B304EB8708303DC8F860
:10051000185019E059F8041B204604EB870291613A
:10052000E1688847012F054618D1E069002820DAE4
:1005300026F020061DE0D8F8180000EB800005EB3F
:1005400040003038C8F818002046E1688847054662
:1005500003F072FB0028EED1012F0AD02E2D08D116
:100560002046E16888477F1C0546022F46F020069A
:10057000C4DBA069002803DA404246F00106A0610E
:10058000F00701D026F010066C2D0BD0682D09D095
:100590004C2D39D06A2D35D0742D35D07A2D33D0ED
:1005A00016E038E0E1682F4620468847B842054605
:1005B00009D16C2F26D04FF48060E16806432046B5
:1005C0008847054604E06C2F1AD04FF4807006432C
:1005D0000DB3A5F14100192802D8203546F4006674
:1005E0004A462946204626604E46FFF727FE80B140
:1005F00001280BD0F61D26F0070000F1080956E788
:100600004020E4E78020D8E70020D6E706F104097F
:100610004DE7284652E7206ABDE8F09F645A000083
:1006200010B5203AC0F00B80B1E81850203AA0E88D
:100630001850B1E81850A0E81850BFF4F5AF5FEAC1
:10064000027C24BFB1E81850A0E8185044BF18C974
:1006500018C0BDE810405FEA827C24BF51F8043B1B
:1006600040F8043B08BF7047D20728BF31F8023B6F
:1006700048BF11F8012B28BF20F8023B48BF00F803
:10068000012B70474FF0000200B513469446964682
:10069000203922BFA0E80C50A0E80C50B1F1200195
:1006A000BFF4F7AF090728BFA0E80C5048BF0CC043
:1006B0005DF804EB890028BF40F8042B08BF7047A1
:1006C00048BF20F8022B11F0804F18BF00F8012B13
:1006D000704700004FF0013C50F8042B51F8043BE8
:1006E0009A4221D1A2EB0C03934313EACC1317D106
:1006F00050F8042B51F8043B9A4215D1A2EB0C039D
:10070000934313EACC130BD150F8042B51F8043B5C
:100710009A4209D1A2EB0C03934313EACC13DBD02A
:100720004FF00000704700BFD01A01BAB1FA81F152
:1007300001F0180122FA01F0CB40C1F12001DBB237
:10074000C0B2C01A2CFA01F3D11A914311EAC311B5
:10075000E6D1704770477047704770472DE9F04702
:100760000D4699469246044600F124080168880621
:1007700004D5E06921F01001216000E00120A842C9
:1007800001DD471B00E00027A1697A1902EB09008F
:10079000081AA0612078C00602D42046AFF300807A
:1007A000002608E0D4E901211AF806009047206AE3
:1007B000401C761C20624E45F4DB2078C0060AD52A
:1007C0002046AFF3008006E0D4E9012130209047B5
:1007D000206A401C2062381EA7F10107F4DC07E004
:1007E000D4E9012118F805009047206A401C2062D6
:1007F000281EA5F10105F3DC2046AFF30080207828
:10080000000602D50220BDE8F0870120FBE7704713
:100810002DE9FF4F0C461E464FF0FF378BB0D2E953
:100820000001DDF860800A908A46C1F30A5505B9D7
:100830003D46002108464FF00000BAF1000F00F4D9
:10084000400005DA00EB80004FF4400101EA50005F
:100850004FEA9059B9F1010F00DDB9460A9850EA04
:100860004A000ED044F61050A5F2FF3545432F1430
:10087000B8F1000F1ED07542291E1EDDC9F100021D
:100880001CE0B8F1010F4FF0000001D0302103E06F
:10089000F24305E02154401CB042FBDB304600220D
:1008A000002121540B99C1F80880C1E900200FB044
:1008B000BDE8F08FBD1B6D1CDEE74A4600DA6942D9
:1008C00006A800F07DFA06AB93E8070003AB83E8C7
:1008D000070050460A9900F00EFB8DE80700A0F5CE
:1008E00000501F3800900398002D09DD42F21F01CF
:1008F0004A46084403A90390684600F06DFD08E0ED
:10090000A0F500504A461F3803A90390684600F03E
:1009100077FD8DE807000004000C03D04FF0FF3096
:10092000410800E01046B8F1000F03D00022009209
:1009300015461EE0751E05D400F0BCF93032625534
:100940006D1EF9D5B3460122084302D000227F1C58
:1009500004E02078302801D100227F1E002A099768
:1009600086D01DE0112D07DA00F0A4F9303262556F
:100970006D1C50EA0102F5D1084302D00098C8B1BD
:100980000EE00021681E05E0235C625C6354225483
:10099000401E491C8142F7DBAB46A81B401E099054
:1009A000002004F80B000B98099AC0F80880C0E9F1
:1009B000002B7CE711264FF0000859E72DE9F04F96
:1009C00088460446D21D22F0070191B0D1E900010A
:1009D000CDE90A0103F018F902460B98C00F01D0C7
:1009E0002D2007E02068810701D52B2002E020217F
:1009F00001EAC000032A099001D0072A05DB03465B
:100A00004146204600F09CF909E12078800601D596
:100A1000E06900E00620B8F1650F814606D0B8F124
:100A2000660F18D0B8F1670F70D131E00020B9F12E
:100A3000110F009001DB112301E009F101030AAA63
:100A400001A90CA8FFF7E4FEDDE90C70002609F10E
:100A50000105834647E001204B4600904FF00047D8
:100A60000AAA01A90CA8FFF7D3FEDDE90DB00C9985
:100A70005D46002610B909F101000D18B9EB05001B
:100A800003D4C0F1FF3609F10105A5EB09002BE005
:100A9000B9F1010F01DA4FF001090020B9F1110F8E
:100AA0000090484601DD112300E003460AAA01A98F
:100AB0000CA8FFF7ADFEDDE90C704D46002683461D
:100AC000207800070AD4AB4500DA5D4601A8012D65
:100AD00004DD411911F8011C302907D04F4502DA15
:100AE00017F1040F04DA012082460FE06D1EEEE7D5
:100AF000002F02DCED1B3E4403E0781CA84200DD21
:100B00007D1CB81B00F1010A4FF000472078000758
:100B100003D4AA4501DB4FF0FF3A0021B7F1004FA3
:100B20000DF143088DF8431022D002202B23002F13
:100B300001DA7F422D234FF00A0C011EA0F10100C3
:100B400000DC47B197FBFCF10CFB11720F46303211
:100B500008F8012DF1E7A8F10100037021880905CB
:100B600001D5452100E06521A0F1010800F8011C34
:100B700009980FA9A1EB0807FF1D00B10120411939
:100B800001EBEA70A1693844081A401EA061207880
:100B9000C00602D42046AFF30080099828B1D4E9FA
:100BA00001219047206A401C20622078C00622D58F
:100BB0002046AFF300801EE0002E04DBB34502DDCB
:100BC00001A8805D00E03020D4E901219047206A2F
:100BD000401C2062761CAAF101005FEA000A0AD1DB
:100BE00000F064F8C0680168405CD4E901219047D6
:100BF000206A401C2062281EA5F10105DCDC07E00C
:100C0000D4E9012118F8010B9047206A401C2062AA
:100C1000381EA7F10107F3DC2046AFF30080022065
:100C200011B045E601694A1C02610878704700B5B9
:100C30008FB0CDE901310021059105497944CDE915
:100C4000031011466846FFF727FC0FB000BD0000F7
:100C5000E5FFFFFF10B5436913B1AFF3008001E07A
:100C6000FFF76CFB012010BD127800F124010A701F
:100C700000224A700122EDE711684FF0FF32E9E7E8
:100C8000074B70B50D467B44FFF7D1FF044628465D
:100C900000F002F910B14FF0FF3070BD204670BD7A
:100CA0005733000000487047C8350120004870479E
:100CB000E835012030B5B0F10A024FEA900E71F12B
:100CC00000034EEA817EB0EB0E0061EB91014FEA2A
:100CD000101E4EEA017E10EB0E0041EB11114FEA9F
:100CE000102E4EEA016E10EB0E0041EB11214FEA7F
:100CF000104E4EEA014E10EB0E0041EB1141401830
:100D000041F100014FEAD00040EA41704FEAD101C1
:100D100010EB80054FEA810444EA907444EB01042F
:100D20006D1944EB0404521BA3414FF0000348BF6C
:100D30000A3200D530BD401C41F1000130BD000039
:100D40002DE9F0411F46044603260168072A01F4F5
:100D5000006004DB08B116A505E016A503E008B1A4
:100D600015A500E015A521F010002060A069C01EA7
:100D7000A0610FB1401EA0612046AFF300804FB1CB
:100D8000D4E9012138469047206A401C2062C01CEB
:100D9000206206E0206AFAE7D4E9012115F8010B88
:100DA0009047761EF8D22046AFF30080BDE8F08170
:100DB0004E414E006E616E00494E4600696E6600FF
:100DC0002DE9F047814616468AB0324878440DC86E
:100DD0008DE80D002F487844801C03AC0DC884E8D2
:100DE0000D0041F69B303722014491FBF2F0A0F157
:100DF000800502FB10141B3C02D56442012000E078
:100E00000020DFF890A080460027FA44AAF1BA0A31
:100E10000DE0E00709D03246684607EB47010AEBD0
:100E2000810100F0EDFA8DE8070064107F1C002CB2
:100E3000EFD1184F7F44A83F18E0E80714D007EB24
:100E400004100DF1180A90E80E008AE80E00C06840
:100E5000F04201D198190890324606A903A800F083
:100E6000CFFA03AB83E807006D10641C002DE4D1BA
:100E700032466946B8F1000F03A802D000F0ACFA80
:100E800001E000F0BDFAC9E90001C9F808200AB084
:100E9000BDE8F087D0510000007B00F08000704773
:100EA0007546FFF7FFFEAE4605006946534620F043
:100EB0000700854618B020B5FFF720FABDE82040AE
:100EC0004FF000064FF000074FF000084FF0000B06
:100ED00021F00701AC46ACE8C009ACE8C009ACE8B9
:100EE000C009ACE8C0098D4670470446AFF30080E6
:100EF0002046FFF7C8F95FEA400C08BF91F0000FE9
:100F00004FEA8C234FEAC12243EA51514FEA1C5069
:100F100018BF00F5F0404FEA300018BF41F0004123
:100F20005FEA6C5C00F02980BCF1FF3F08BF40F035
:100F300080407047130C06BF12044FF0100C4FF0A6
:100F4000000C130E04BF12020CF1080C130F04BFA7
:100F500012010CF1040C930F04BF92000CF1020C6F
:100F6000D30F04BF52000CF1010C11464FF00002E8
:100F7000A0F11F00A0EB0C00704711F0004F08BF5C
:100F8000704731F000413FF4D5AF0B0C06BF0904A8
:100F90004FF0100C4FF0000C0B0E04BF09020CF1C7
:100FA000080C0B0F04BF09010CF1040C8B0F04BFDC
:100FB00089000CF1020CCB0F04BF49000CF1010CAD
:100FC000CCF12003A0EB0C0022FA03F302FA0CF29E
:100FD00041EA030100F10100704720F07F4C80EAF4
:100FE000030023F07F47ACEB070303F57C5300F0CD
:100FF000004003F1FF032DE980494FEA154B09B486
:101000004FEA144325EA0B4E24EA03480FF2042664
:1010100006EB132749083E785FEA320203FB0667B6
:10102000C7F5000707FB06F64FEA54374FEAD646E6
:1010300006F1020607FB066CCCF1005C4FEA1C4788
:101040002CEA074C07FB06F40CFB06F504EB1546EF
:101050004FEA961634BF00204FF000404FEAD137D8
:1010600006FB07FC4FEA1C4C0CFB0BF7D21B03FBE7
:101070000CF761EB07010CFB0EF7B0EB074072EBCE
:1010800017420CFB08F734BFA2EB0742B2EB074252
:1010900061EB17414FEA0C444FEA910706FB07FC4E
:1010A0004FEA1C4C0CFB0BF7B0EBC74072EB57320E
:1010B00003FB0CF734BFA2EBC742B2EBC74261EBB4
:1010C00057310CFB0EF7B0EBC70072EB57720CFBFD
:1010D00008F734BFA2EBC702B2EBC70261EB57714E
:1010E000039F4FEA816141EA921104EBCC044FEA7D
:1010F000D1374FEA826206FB07FC42EA90124FEAC0
:1011000080604FEA1C4C0CFB0BF7D21B03FB0CF767
:1011100061EB07010CFB0EF7B0EB074072EB1742D7
:101120000CFB08F734BFA2EB0742B2EB074261EBBE
:1011300017414FEA8C554FEA910704EB9C2406FBBC
:1011400007FC4FEA1C4C0CFB0BF7B0EBC74072EBF3
:10115000573203FB0CF734BFA2EBC742B2EBC742D6
:1011600061EB57310CFB0EF7B0EBC70072EB577217
:101170000CFB08F734BFA2EBC702B2EBC70261EB6E
:10118000577115EB4C254FEA816141EA92114FEA04
:1011900082624FEAD13742EA901206FB07FC44F123
:1011A00000044FEA80604FEA1C4C0CFB0BF7D21B8B
:1011B00003FB0CF761EB07010CFB0EF7B0EB0740EC
:1011C00072EB17420CFB08F734BFA2EB0742B2EBFD
:1011D000074261EB174115EB1C154FEA813141EADB
:1011E00092414FEA823242EA90424FEA80304FEA1F
:1011F0000C7644F1000448EA03434EEA0B484FF0F2
:10120000000EB2EB080C71EB030724BF62463946AF
:101210004EEB0E0E4FF0000B0018524149414BEBC4
:101220000B0BB2EB080C71EB03077BF1000B24BF37
:10123000624639464EEB0E0E4FF0000B001852413D
:1012400049414BEB0B0BB2EB080C71EB03077BF145
:10125000000B24BF624639464EEB0E0E51EA0207E0
:1012600018BF46F0010616EB0E7655F1000254F158
:10127000000103D5BDE88901BDE80088BDE889010A
:10128000B619BDE80048524141EB0101A3F1010349
:10129000704780807F7E7D7C7B7A797877767675E3
:1012A0007473727171706F6E6E6D6C6C6B6A6A695B
:1012B0006868676666656464636362616160605FF5
:1012C0005F5E5E5D5D5C5C5B5B5A5A59595858576E
:1012D00057565655555554545353525252515150D6
:1012E00050504F4F4F4E4E4D4D4D4C4C4C4B4B4B29
:1012F0004A4A4A494949484848474747474646466F
:1013000045454544444444434343434242424241A9
:101310004141002B26D4770021D01CB54FEA370776
:1013200003B44FF010004FF010014FF000000FBC5D
:101330000BF1010BBDE81040BBF1010F08BF5FEAE4
:10134000170722BF12F1010211F101014FF0004114
:1013500043F1000300F0004043EA00007047F9D376
:101360005708DAE746EA064613F1400F4FEA1646F9
:101370001FDD13F1200FDFBF16430A460021203383
:101380005B42C8D0C3F1200746EA064602FA07F7D7
:101390004FEA164646EA0706C3F1200722FA03F28F
:1013A00001FA07F721FA03F14FF0000342EA0702BE
:1013B000B1E746EA020646EA06464FEA164646EA1C
:1013C0000106BCBF46EA0646360C4FF000034FF05C
:1013D00000024FF000019EE72DE9C048934630B46B
:1013E00091E8380007C831EA400C48BF34EA430CA2
:1013F00003D5FFF7F2FDFFF78CFFF0BCBDE80088D6
:101400002DE9C048934630B491E8380007C810F081
:10141000804F08BF13F0804F03D100F005F8FFF7AD
:1014200078FFF0BCBDE8008820F07F4780EA030029
:1014300023F07F4C07EB0C03A3F57C5300F0004036
:10144000A3F1FE0392F0000F00F0B38095F0000FBF
:1014500000F077802DE901494FEA11404FEA144628
:1014600021EA004800FB06FC24EA064708FB06F6D2
:1014700007FB08F800FB07F718EB06484CEB164C87
:101480004FEA124B18EB07484FEA15464CEB174052
:1014900022EA0B4E0BFB06FC25EA06470EFB06F67E
:1014A00007FB0EFE0BFB07F71EEB064E4CEB164C34
:1014B0004FF000061EEB074E4CEB174B18EB0B08DA
:1014C00040F1000018EB0E0B58EB000840F1000053
:1014D0008F1A4FF000013CBFC943661B14BFB5EB28
:1014E000040C00213CBFC943F61B4FEA17444EEAE7
:1014F0008E0E27EA04454FEA1C4704FB07622CEADC
:10150000074C05FB07F70CFB05F604FB0CFC16EB80
:10151000074642EB174216EB0C4642EB1C421BEB14
:10152000060658EB0202414146EA9E0601D5BDE897
:101530000189B619524141EB0101A3F10103BDE854
:1015400001894FEA14454FEA114724EA054621EA8A
:10155000074C05FB07F406FB07F70CFB06F105FB40
:101560000CFC11EB074144EB17444FEA124711EB17
:101570000C4144EB1C4422EA074C05FB07F206FB36
:1015800007F70CFB06F605FB0CFC16EB074642EBD7
:10159000174216EB0C4642EB1C456A1854F1000149
:1015A00048BF7047B619524141EB0101A3F1010355
:1015B000704795F0000F37D04FEA11424FEA1447B9
:1015C00021EA024624EA074C02FB07F106FB07F773
:1015D0000CFB06F402FB0CFC14EB074441EB174137
:1015E0004FEA154714EB0C4441EB1C4125EA074C2C
:1015F00002FB07F506FB07F70CFB06F602FB0CFCEB
:1016000016EB074645EB174516EB0C4645EB1C421F
:10161000121951F1000148BF7047B619524141EB10
:101620000101A3F1010370474FEA14454FEA114746
:1016300024EA054621EA074C05FB07F106FB07F7FC
:101640000CFB06F24FF0000605FB0CFC12EB074208
:1016500041EB174112EB0C4251EB1C4148BF704764
:10166000921841EB0101A3F1010370473249097857
:1016700039B9AA2805D101212F4A11702F490870C4
:1016800059E02D490978012907D1AF2805D1022158
:10169000294A1170294948704DE0274909780229E3
:1016A00007D1F12805DA0321234A117023498870F4
:1016B00041E02149097803290CD132280ADA0421B2
:1016C0001D4A11701D49C8701D49087000211D4A2E
:1016D000117030E018490978042919D1184909789E
:1016E000002915DD16490978491E154A117015495A
:1016F0000978144A1278521C124B1A70091D0F4AAD
:1017000050540F490978B1B905210B4A117012E004
:101710000949097805290BD10021074A11700949A7
:101720000978091D054A50540121074A117002E049
:101730000021014A117070476F0200202706002027
:101740006E0200206C0200206D02002002A0FEF755
:10175000E9FD00BFFEE700004275734661756C74D9
:101760005F48616E646C65720D0A000070B50446D6
:101770000D4600F007F800F02DF82946204600F04D
:1017800013F970BD1CB50121084601F051FB012180
:10179000480601F05DFB09220C210D4800F0E6FF30
:1017A00009220B210A4800F0E1FF4FF4C0500090DD
:1017B00002208DF8040003208DF8050000208DF82C
:1017C00006008DF807006946014800F087FF1CBD40
:1017D0000000024008B514208DF8000000208DF8AC
:1017E00001008DF8020001208DF80300684601F029
:1017F0004FFA13208DF8000000208DF801008DF8BD
:10180000020001208DF80300684601F041FA08BD8E
:1018100010B586B00221504800F060FC00287DD051
:1018200002214D4800F066FB4C494B4800F046FB56
:1018300001AA0021484800F074FD0198B0F5007F2E
:1018400018D90198B0F5027F14D89DF812409DF880
:10185000113044EA03231AB29DF810309DF80F406E
:1018600043EA0421019BA3F201233D4C04EBC30096
:1018700002F006FB40F203210198884208D19DF84E
:1018800012109DF8110041EA002000B2354908808D
:1018900040F205210198884215D19DF810009DF86D
:1018A0000F1040EA0120304908809DF812109DF881
:1018B000110041EA002000B22C4908800846B0F926
:1018C00000002B49088040F201210198884208D18C
:1018D0009DF812109DF8110041EA002000B2254940
:1018E000088040F202210198884208D19DF8121028
:1018F0009DF8110041EA002000B21E49488040F2E4
:1019000007210198884208D19DF812109DF8110016
:1019100041EA002000B21849088000E019E001986F
:10192000B0F5027F08D19DF812109DF8110041EA30
:10193000002000B2104948800198B0F5047F08D11A
:101940009DF810009DF80F1040EA012000B20B49ED
:10195000088006B010BD00000064004003000012C3
:10196000EC0300206E0100206201002060010020D5
:1019700064010020660100206A010020740100203B
:1019800010B50121064800F0A9FB40B1012104482F
:1019900000F0B0FA03480068401C0249086010BD1E
:1019A000006400405C06002030B587B005460C4658
:1019B000244800F0F3FA04A800F02BFD00208DF875
:1019C00016008DF817008DF818008DF819008DF8A5
:1019D0001A0001208DF81B0000208DF812008DF8F0
:1019E000130008208DF8140003208DF81500ADF8C1
:1019F000100004A9134800F00AFC00208DF80A002A
:101A00008DF80B0001208DF80C00ADF80050ADF8FA
:101A100002400020ADF80400ADF80600ADF8080063
:101A200001208DF80D00684600F0D4FA0122022151
:101A3000044800F0E3FB01221146024800F0DEFBFF
:101A400007B030BD0064004030B52DED028B85B08D
:101A50009FEDF10AB0EE408A0221F04800F03EFB13
:101A600000287DD00221ED4800F044FAEC49EB4813
:101A700000F024FA6A460021E84800F052FC9DF884
:101A80000800002877D19DF80A00082873D10024A7
:101A90006EE0E44931F814100098884267D19DF84F
:101AA0000E109DF80D0041EA002000B2DE4921F839
:101AB0001400084630F914000A2807DA084630F9FD
:101AC000140010F10A0F01DD002002E0D64830F9C1
:101AD0001400D54921F814009DF810109DF80F004E
:101AE00041EA002000B2D14921F81400084630F93B
:101AF00014000A2807DA084630F9140010F10A0F1A
:101B000001DD002002E0C94830F91400C74921F87E
:101B10001400B7EE000A70EE480AC54830F9140008
:101B200000EE100AB8EEC00A20EE800A084630F92E
:101B3000140000EE900AF8EEE00A00EE880ABDEE0E
:101B4000C00A10EE100A00B221F81400084630F85E
:101B50001400B74921F81400B64850F8240001E0F9
:101B600056E108E0401CB34941F8240002E0641C3F
:101B7000042C8ED300BF0098B0F5007F18D90098D0
:101B8000B0F5027F14D89DF80E509DF80D3045EA4F
:101B900003231AB29DF80C309DF80B5043EA05213F
:101BA000009BA3F20123A44D05EBC30002F068F9EA
:101BB0000098B0F5007F11D90098B0F5027F0DD8DC
:101BC0009DF80C209DF80B3042EA0321009AA2F206
:101BD00001229A4B03EBC20002F070F940F205219A
:101BE000009888427ED19DF80B00000200B29DF85B
:101BF0000C10084300EE100AB8EEC00A904880EDC1
:101C0000000A8E484038006E8E4908608C4890ED7E
:101C1000000A8D48D0ED000A30EE600ADFED8B0A35
:101C200020EE200ADFED8A0A80EE201A894890ED26
:101C3000000A31EE000A884880ED000A90ED000AA3
:101C4000DFED860AB4EEE00AF1EE10FA07DD90ED62
:101C5000000ADFED7E0A30EE600A80ED000A7E4861
:101C600090ED000ADFED7E0AB4EEE00AF1EE10FA24
:101C700007D290ED000ADFED750A30EE200A80ED04
:101C8000000A6E48403890ED190AB8EE400A9FED00
:101C9000701AC0EE010A90ED180AB8EEC00A30EED4
:101CA000800A674880ED000A9DF80D00000200B22E
:101CB0009DF80E1008436B4908800846008800EB29
:101CC0008000800000B208805D4890ED000ADFEDE2
:101CD000660A20EE200A80ED000A9DF80F0000023F
:101CE00000B200E00BE09DF8101008435F49088047
:101CF00050480C38C069401C4E490C39C86140F24C
:101D000006210098884235D19DF80B00000200B2F0
:101D10009DF80C10084300EE100AB8EEC00A5448B3
:101D200080ED000A90ED000AF1EE000A20EE200A94
:101D300080ED000A9DF80D00000200B29DF80E1023
:101D400008434C4908800846008800EB800080006A
:101D500000B208809DF80F00000200B29DF810103C
:101D600008434549088033480C38006A401C314913
:101D70000C3908620098B0F5067F49D19DF80C0037
:101D80009DF80B1040EA012000B23C4908809DF804
:101D90000E109DF80D0041EA002000B2384908807D
:101DA000364800884FF4FA6110FB01F000EE100A8B
:101DB000B8EEC00ADFED330A80EE201A324880ED1B
:101DC000001A2F49B1F90000C11700EB5171C91079
:101DD00001F6FF712A4A11801046008881B22B4813
:101DE00002F06CF8294890ED010AB8EE400A9FED28
:101DF000181AC0EE010A90ED000AB8EEC00A30EEE3
:101E0000800ADFED190A20EE200A214880ED000A41
:101E100005B0BDEC028B30BD9A99993E0068004038
:101E200003000012B0020020FC000020040100208A
:101E3000A4010020680600202C040020AC0400202F
:101E4000A800002084010020780100200000B44395
:101E500000000046800100207C0100200000344387
:101E6000000034C3C200002000C04C44BE0000206B
:101E7000AC000020C0000020BC0000208C0100202D
:101E80008E0100200AD7A343900100209C0100206E
:101E90009801002010B50121064800F01FF940B15B
:101EA0000121044800F026F803484068401C02491C
:101EB000486010BD006800405C06002000220C4B0A
:101EC000994202D10023836111E0C1F3130201F0B2
:101ED00000730BB1C2600AE001F080630BB10261D4
:101EE00005E001F000630BB1826000E042607047E2
:101EF0007000F030B1F5007F3AD00FDC202928D0F7
:101F000006DC01291CD004291DD0082940D11DE080
:101F1000402921D0B1F5807F3AD126E0B1F5004FBC
:101F200031D006DCB1F5806F25D0B1F5006F2FD12F
:101F300024E0B1F5803F12D0B1F5003F28D111E087
:101F4000154A826025E00822C26022E01022C260A9
:101F50001FE0082202611CE01022026119E0082241
:101F6000426016E01022426013E00422426010E05A
:101F7000042242600DE0042242600AE000228261F5
:101F80000422426005E0002282610422426000E0F7
:101F900000BF00BF704700000101010010B50446FA
:101FA0000B48844209D10121480600F061FF00215D
:101FB0004FF0007000F05CFF08E00121880600F09F
:101FC00057FF00214FF0806000F052FF10BD00006D
:101FD0000064004010B50021837A012202FA03F167
:101FE0003D4A126842F001023B4B1A603A4A1C32E9
:101FF00012688A43384B1C331A60027BCAB9364ACE
:102000000C3212688A43344B0C331A604288C388FE
:1020100042EA0343304A4032847A42F8343002883C
:10202000838842EA03432C4A4032847A02EBC4029A
:102030005360027B012A19D1274A0C3212680A43E5
:10204000254B0C331A604288038842EA0343224A34
:102050004032847A42F83430C288838842EA0343AB
:102060001D4A4032847A02EBC4025360C27A3AB904
:10207000194A121D12688A43174B1B1D1A6006E08D
:10208000154A121D12680A43134B1B1D1A60028960
:1020900032B9114A143212688A430F4B14331A6052
:1020A0000289012A06D10C4A143212680A430A4BEB
:1020B00014331A60427B012A06D1074A1C32126887
:1020C0000A43054B1C331A60034A126822F00102CE
:1020D000014B1A6010BD00000066004070B5044658
:1020E0000D46002660692840002871D0B5F5807F34
:1020F0005CD010DC082D35D006DC012D20D0022D5F
:1021000024D0042D72D127E0102D31D0202D35D0D0
:10211000402D6BD138E0B5F5004F60D009DCB5F546
:10212000007F49D0B5F5806F4CD0B5F5006F5DD11B
:102130004FE0B5F5803F2DD0B5F5003F56D12FE0EB
:10214000A0682D4900F008FA064651E0E068032136
:1021500000F002FA06464BE0E068082100F0FCF9C6
:10216000064645E0E068102100F0F6F906463FE03B
:102170002069032100F0F0F9064639E020690821C2
:1021800000F0EAF9064633E02069102100F0E4F996
:1021900006462DE06068082100F0DEF9064627E0DB
:1021A0006068102100F0D8F9064621E0A0690121FD
:1021B00000F0D2F906461BE0A069022100F0CCF93C
:1021C000064615E0A069042100F0C6F906460FE0B6
:1021D0000FE0A069702100F0BFF9064608E06068D2
:1021E000042100F0B9F9064602E0FFE7002600BF2F
:1021F00000E00026304670BD010101001AB14369BC
:102200000B43436102E043698B434361704730B540
:10221000024600200023146824F0020414601468AD
:1022200044F00104146000E05B1C546804F00104F5
:102230001CB94FF6FF74A342F6D1546804F00104B0
:102240000CB900206CE08C79012C04D1146844F0A6
:102250008004146003E0146824F080041460CC79D6
:10226000012C04D1146844F04004146003E01468A5
:1022700024F0400414600C7A012C04D1146844F05A
:102280002004146003E0146824F0200414604C7AE5
:10229000012C04D1146844F01004146003E01468A5
:1022A00024F0100414608C7A012C04D1146844F0DA
:1022B0000804146003E0146824F008041460CC7A65
:1022C000012C04D1146844F00404146003E0146881
:1022D00024F0040414608C78A407CD7844EA0564E3
:1022E0000D7944EA05444D7944EA05540D886D1E84
:1022F0002C43D461146824F001041460002300E02E
:102300005B1C546804F001041CB14FF6FF74A34237
:10231000F6D1546804F001040CB1002000E0012063
:1023200030BD10B500F5D87303EB01131B6803F043
:1023300004031372137A53B900F5D87303EB011336
:102340001B6840F2FF7404EA5353136009E000F580
:10235000D87303EB01131B686FF0604404EAD303E6
:10236000536000F5D87303EB01131B6803F00203FD
:10237000537200F5D87303EB01135B6803F00F038E
:10238000937200F5D87303EB01135B681B0AD374D7
:1023900000F5D87303EB01139B68D37200F5D87373
:1023A00003EB01139B681C0A147300F5D87303EB4D
:1023B00001139B681C0C547300F5D87303EB0113D5
:1023C0009B681B0E937300F5D87303EB0113DB6856
:1023D000D37300F5D87303EB0113DB681C0A147484
:1023E00000F5D87303EB0113DB681C0C547400F583
:1023F000D87303EB0113DB681B0E937421B9C36818
:1024000043F02003C36003E0036943F0200303614A
:1024100010BD00218171C171017241728172C1725E
:102420008170C1700321017102214171012101807C
:10243000704710B502460020936803F08063B3F143
:10244000806F00D110E0936803F00063B3F1006F78
:1024500001D1012008E0936803F08053B3F1805F5D
:1024600001D1022000E00420042874D002F5C073DA
:1024700003EB00131B6803F0010402F5C07303EBC8
:1024800000131C600B7A7BB94B7A0C8843EA4453E7
:1024900002F5C07404EB00142468234302F5C074F1
:1024A00004EB0014236010E00B7A4C6843EAC40389
:1024B0004C7A234302F5C07404EB001424682343D0
:1024C00002F5C07404EB001423608B7A03F00F0351
:1024D0008B7202F5C07303EB00135B6823F00F04EB
:1024E00002F5C07303EB00135C6002F5C07303EBED
:1024F00000135B688C7A234302F5C07404EB00146C
:1025000063608B7B1C064B7B44EA03440B7B44EAF1
:102510000323CC7A234302F5C07404EB0014A360B8
:102520008B7C1C064B7C44EA03440B7C44EA03236B
:10253000CC7B234302F5C07404EB0014E36002F586
:10254000C07303EB00131B6843F0010402F5C07372
:1025500003EB00131C6010BD0246002002EA0103D9
:102560000BB1012000E000207047000010B500BF53
:102570000B4801680B4801F08FFE00BF0A490B4869
:1025800000F034F858B10849084800F015F8084838
:102590000068804707488068401C0649886010BD75
:1025A00024030020A4020020008020104064024088
:1025B000940200205C0600200246094B9A4201D298
:1025C000084801E00648103801F000531BB1064BE3
:1025D0000B40C36002E0044B0B4083607047000077
:1025E00010640240006002407D0F7D0F70B502460E
:1025F000002000240025124EB24201D2114B01E00E
:102600000F4B103B104E0E4036B11E2606EAD12469
:10261000166806EA040502E0566906F0800501F036
:1026200000560EB15C6800E01C68084E344004EAB5
:10263000010616B10DB1012000E0002070BD0000C0
:1026400010640240006002403C0F3C0F7D0F7D0F84
:1026500002A0FDF767FE00BFFEE70000446562755B
:10266000674D6F6E5F48616E646C65720D0A0000A5
:102670000EB50121880400F00BFC684600F030FF25
:102680000020ADF808001020ADF802006320019092
:102690005320ADF800006946084800F0DFFE00BF97
:1026A00006481030008800F001000028F8D04FF6EE
:1026B000FE700249103108800EBD00000048014044
:1026C00002A0FDF72FFE00BFFEE700004650555F59
:1026D00048616E646C65720D0A000000F0B50A4630
:1026E00000210023002400BF3DE0012505FA01F38D
:1026F000156805EA03049C4234D105684F0003269F
:10270000BE40B543056015794E00B54006683543B7
:1027100005601579012D02D01579022D16D1856835
:102720004F000326BE40B543856055794E00B54045
:10273000866835438560456801268E40B54345600F
:10274000456896798E40B6B235434560C5684F00FE
:102750000326BE40B543C560D5794E00B540C66876
:102760003543C560491C1029BFD3F0BDF0B5002327
:1027700000244D07ED0E02FA05F3CE1000F12005FE
:1027800055F826504E07F70E0F26BE40B543CF1022
:1027900000F1200646F82750CE1000F1200555F82C
:1027A000265045EA0304CE1000F1200545F82640E6
:1027B000F0BD0246002013690B400BB1012000E080
:1027C00000207047418370470183704742694A4047
:1027D0004261704704A0FDF7A5FD0848016808A004
:1027E000FDF7A0FD00BFFEE7486172644661756CAD
:1027F000745F48616E646C65720D0A002CED00E038
:1028000025780D0A0000000010B540210B48FFF7A5
:10281000D9FF00F089F880210848FFF7D3FF022094
:1028200001F066FB40210548FFF7CEFF022001F0D2
:102830005FFB40210148FFF7C5FF10BD00040240C7
:102840001CB50121022000F0F3FAC0200090012005
:102850008DF8040002208DF8050000208DF8060098
:1028600001208DF8070069460348FFF737FFC021B4
:102870000148FFF7A9FF1CBD0004024010B540212C
:102880000B48FFF79FFF00F04FF880210848FFF743
:102890009BFF022001F02CFB40210548FFF794FF2D
:1028A000022001F025FB40210148FFF78BFF10BDFE
:1028B0000004024070B5002400F022F8002518E062
:1028C00040210E48FFF77EFF022001F011FB40215E
:1028D0000A48FFF779FF6006040E80210748FFF7DA
:1028E00068FF08B1601CC4B2022001F001FB681C43
:1028F000C5B2082DE4DB204670BD00000004024094
:1029000010B58020064908600020087188710320F6
:1029100048710120C8710348FFF7E0FE10BD0000B8
:10292000300200200004024010B5802006490860F3
:102930000120087100208871032048710120C871AE
:102940000248FFF7CBFE10BD300200200004024019
:1029500070B50446FFF7E8FF40211A48FFF732FF41
:10296000032001F0C5FA002528E004F0800020B122
:1029700080211448FFF728FF03E080211148FFF76A
:1029800021FF022001F0B4FA40210E48FFF71CFF9E
:10299000022001F0ADFA40210A48FFF713FF072D8E
:1029A00005D1FFF7ADFF80210648FFF70DFF600658
:1029B000040E022001F09CFA681CC5B2082DD4DB7D
:1029C00070BD00000004024010B5FFF7ADFF80218C
:1029D0000A48FFF7F9FE40210848FFF7F5FE0220FC
:1029E00001F086FA80210548FFF7ECFE022001F095
:1029F0007FFA40210148FFF7E5FE10BD00040240C8
:102A000010B5FFF791FF40210A48FFF7DBFE802158
:102A10000848FFF7D7FE022001F06AFA4021054876
:102A2000FFF7D2FE022001F063FA80210148FFF790
:102A3000CBFE10BD0004024010B50024FFF760FF7C
:102A400080211148FFF7C0FE012001F051FA40211A
:102A50000D48FFF7B9FE012001F04AFA07E0601CBB
:102A6000C4B2FA2C03DDFFF7CBFF012010BD80219B
:102A70000548FFF79EFE0028F1D140210248FFF7EC
:102A8000A1FE0020F2E700000004024070B50446F9
:102A9000FFF79AFF2046FFF75BFFFFF7CDFF0546E4
:102AA000FFF7AEFF284670BD10B5FFF7C9FE8020C6
:102AB000FFF7ECFFA8B90EA0FDF734FC4FF400427D
:102AC0000021802000F074F844F2070200218020E9
:102AD00000F06EF84FF400620521802000F068F8E5
:102AE00004E0FFF78DFF07A0FDF71CFC10BD000000
:102AF000494E413232365F3120666F756E640A0A84
:102B0000000000006E6F666F756E6420696E613242
:102B100032365F310A0A0000F8B504460D46FFF769
:102B200053FF2046FFF714FFFFF786FF30B1FFF792
:102B300067FF1CA0FDF7F6FB0020F8BD2846FFF755
:102B400007FFFFF779FF30B1FFF75AFF15A0FDF738
:102B5000E9FB0020F1E7FFF737FF44F00100FFF742
:102B6000F7FEFFF769FF30B1FFF74AFF0DA0FDF751
:102B7000D9FB0020E1E7FFF79DFE8DF80100FFF78C
:102B800043FEFFF797FE8DF80000FFF777FEFFF793
:102B900037FF9DF800009DF8011000EB012006B200
:102BA0003046CAE76E756D3A6572726F0A0A0000A8
:102BB000F8B504460E461546280A8DF80000E8B21E
:102BC0008DF80100FFF700FF2046FFF7C1FEFFF779
:102BD00033FF28B1FFF714FF18A0FDF7A3FBF8BDE2
:102BE0003046FFF7B5FEFFF727FF28B1FFF708FFD4
:102BF00012A0FDF797FBF2E79DF80000FFF7A8FE93
:102C0000FFF71AFF28B1FFF7FBFE0CA0FDF78AFBC8
:102C1000E5E79DF80100FFF79BFEFFF70DFF28B1E8
:102C2000FFF7EEFE05A0FDF77DFBD8E706A0FDF758
:102C300079FBFFF7E5FE00BFD1E700007265672072
:102C40006572726F0A0A0000726567206F6B0A0A6C
:102C50000000000002A0FDF765FB00BFFEE70000DA
:102C60004D656D4D616E6167655F48616E646C6551
:102C7000720D0A0002A0FDF755FB00BFFEE7000041
:102C80004E4D495F48616E646C65720D0A0000002C
:102C900070B5002100230F22C4781CB3174C2468A0
:102CA00004F4E064C4F5E064C4F30721C1F1040452
:102CB000E3B20A4144789C40E1B284781440214355
:102CC0000C07210E0E4C05786155047804F01F05A1
:102CD0000124AC4005786D11AD0005F1E025C5F883
:102CE000004109E0047804F01F050124AC40054DC3
:102CF0000678761145F8264070BD00000CED00E026
:102D000000E400E080E100E002490143024A116072
:102D1000704700000000FA050CED00E080ED010AAC
:102D2000C0ED020A80ED031A9FED092A80ED042A06
:102D30009FED072A80ED052A9FED052A80ED062AE2
:102D4000C0ED001A9FED022A80ED072A70470000AF
:102D500000000000B0EE401A31EE600A80ED040A77
:102D600090ED040A90ED053A30EE430AF0EE401A79
:102D700090ED040AB0EE402A90ED040A90ED053A79
:102D8000F0EE003A03EEC30A90ED063A30EE030A85
:102D9000F0EE402A90ED010A20EE210A90ED023A71
:102DA00003EE020A90ED033A03EE220A90ED073A91
:102DB00030EE030A80ED070A90ED050A80ED060A61
:102DC00090ED040A80ED050A90ED070A90ED003AB7
:102DD000B1EE433AB4EEC30AF1EE10FA02DD90ED23
:102DE000070A03E090ED000AB1EE400A90ED003AC8
:102DF000B4EEC30AF1EE10FA12D290ED070A90ED8C
:102E0000003AB1EE433AB4EEC30AF1EE10FA02DD35
:102E100090ED070A06E090ED000AB1EE400A01E0ED
:102E200090ED000A80ED070A90ED070A7047000058
:102E300029B1064A12680243044B1A6004E0034AAF
:102E400012688243014B1A6070470000303802401C
:102E500029B1064A12680243044B1A6004E0034A8F
:102E600012688243014B1A607047000040380240EC
:102E700029B1064A12680243044B1A6004E0034A6F
:102E800012688243014B1A607047000020380240EC
:102E900029B1064A12680243044B1A6004E0034A4F
:102EA00012688243014B1A607047000044380240A8
:102EB000F0B5002100220024022500260223324F13
:102EC0003F6807F00C0121B1042905D0082937D14A
:102ED00005E02E4F076036E02D4F076033E02A4FA4
:102EE0003F1F3F68C7F38056274F3F1F3F6807F0DB
:102EF0003F036EB1264FB7FBF3F7DFF88CC0ACF1A0
:102F0000040CDCF800C0CCF3881C07FB0CF40CE0CC
:102F10001E4FB7FBF3F7DFF870C0ACF1040CDCF820
:102F200000C0CCF3881C07FB0CF4174F3F1F3F6811
:102F3000C7F301477F1C7D00B4FBF5F7076002E093
:102F4000124F076000BF00BF0F4F3F6807F0F0014E
:102F50000909104F7A5C0768D74047600A4F3F68FD
:102F600007F4E051890A0B4F7A5C4768D7408760C5
:102F7000054F3F6807F46041490B064F7A5C47688C
:102F8000D740C760F0BD0000083802400024F400BC
:102F900040787D015C0300201CB501210846FFF745
:102FA00047FF4FF40040009001208DF804000020FE
:102FB0008DF8060002208DF8050000208DF807002E
:102FC00069460448FFF78AFB4FF400410148FFF7C8
:102FD000F9FB1CBD0000024002A0FDF7A3F900BFF1
:102FE000FEE700005356435F48616E646C65720DE6
:102FF0000A0000000CB500200190009034480068E1
:1030000040F480303249086000BF3148006800F465
:10301000003000900198401C0190009818B9019868
:10302000B0F5A04FF1D12A48006800F4003010B18B
:103030000120009001E0002000900098012846D176
:1030400023484030006840F08050214940310860FA
:103050002048006840F440401E4908601C48083081
:1030600000681B49083108600846006840F40040C9
:1030700008600846006840F4A05008601648091F20
:103080000860081F006840F08070091F086000BFDA
:103090000F48006800F000700028F9D040F2057079
:1030A0000E4908600A480830006820F0030008490B
:1030B000083108600846006840F00200086000BF60
:1030C00003480830006800F00C000828F8D10CBD57
:1030D000003802400070004019544007003C024094
:1030E00010B502480068804710BD0000F4020020BF
:1030F00010B51548006840F4700013490860134883
:10310000006840F001001149086000200F490831B3
:1031100008600E4800680E4908400C4908600D48D8
:10312000091D0860081F006820F48020091F08603E
:10313000002006490C310860FFF75CFF4FF000608B
:1031400001498039086010BD88ED00E00038024078
:10315000FFFFF6FE1030002430B58BB005460C465C
:1031600001210220FFF764FE01214804FFF790FED1
:10317000032208212348FFF7F9FA4FF480700990E1
:1031800002208DF829008DF8280000208DF82A00F3
:1031900001208DF82B0009A91A48FFF79FFA07951F
:1031A000ADF818400020ADF81A00ADF820008DF8F9
:1031B000220006A9144800F051F96020ADF804007F
:1031C000124803900120ADF806000420ADF8080075
:1031D0000020ADF81000ADF812004FF48070ADF88B
:1031E00014000020ADF8160001A9074800F0ECF823
:1031F0000821054800F026F90121034800F0AFF846
:103200000BB030BD0004024000440140A06806003D
:103210007FB504460D4601214020FFF719FEADF8A9
:1032200004500020ADF806000294ADF80C0001A98E
:103230000B4800F013F901221146094800F0BBF8D1
:103240000121074800F08BF82B208DF800000120A9
:103250008DF801008DF803006846FFF719FD7FBD6A
:103260000018004030B58BB005460C4601210846D9
:10327000FFF7DEFD01210846FFF70AFE01220821C3
:103280002548FFF773FA4FF48070099002208DF8FB
:1032900029008DF8280000208DF82A0001208DF8E3
:1032A0002B0009A91C48FFF719FA0795ADF818403B
:1032B0000020ADF81A00ADF820008DF8220006A914
:1032C000164800F0CBF86020ADF8040014480390D5
:1032D0000120ADF806000420ADF808000020ADF88C
:1032E0001000ADF812004FF48070ADF8140000200B
:1032F000ADF8160001A9094800F066F80821074852
:1033000000F0A0F80121054800F029F80121034848
:1033100000F031F80BB030BD000002400000014069
:10332000A068060010B50121094800F033F8012813
:1033300009D12422074901F12400FDF771F9242164
:103340000448FDF79FF90121014800F005F810BD80
:10335000001800405C060020CA430282704721B179
:10336000028842F00102028004E002884FF6FE73F8
:103370001A400280704731B1B0F8442042F4004254
:10338000A0F8442005E0B0F84420C2F30E02A0F8F3
:103390004420704730B50246002000230024158ADF
:1033A00005EA0103958905EA010413B10CB1012076
:1033B00000E0002030BD1AB183890B43838102E015
:1033C00083898B438381704770B5002400220023DA
:1033D000058C4FF6FE7635400584028C8388048B7D
:1033E0004FF68F752C40B51E2C400D882C43751E52
:1033F0002A408D892A434D882A43104DA84202D085
:103400000F4DA84213D14FF6F7752A40CD892A43B4
:103410004FF6FB752A408D882A434FF6FF652B40F7
:103420004FF6FF552B400D8A2B434D8A2B4383804B
:1034300004838D684563028470BD00000000014074
:10344000000401400A460021018B4FF6F773194032
:1034500011430183704741637047000000220288D6
:10346000184B98420ED0184B98420BD0B0F1804FB9
:1034700008D0164B984205D0154B984202D0154BF8
:10348000984204D14FF68F731A404B881A43124B5F
:10349000984207D0114B984204D04FF6FF431A4090
:1034A0000B891A4302804B68C3620B880385054B66
:1034B000984202D0044B984201D18B7A03860123B3
:1034C0008382704700000140000401400004004076
:1034D00000080040000C00400010004000140040B4
:1034E0004FF0FF31416000210180018141808172F4
:1034F0007047000010B500BF0A4801680A4800F094
:10350000CBFE00BF40F22551084800F0A7FA38B1C1
:1035100040F22551054800F079FA054800688047D7
:1035200010BD000024030020C8010020004C004012
:10353000D802002010B500BF0A4801680A4800F010
:10354000ABFE00BF40F22551084800F087FA38B1C1
:1035500040F22551054800F059FA054800688047B7
:1035600010BD000024030020D401002000500040C2
:10357000DC02002010B500BF0A4801680A4800F0CC
:103580008BFE00BF40F22551084800F067FA38B1C1
:1035900040F22551054800F039FA05480068804797
:1035A00010BD000024030020B801002000100140DD
:1035B000CC02002010B51D48008800F0080018B1AA
:1035C0001A48001D0088C4B240F22551174800F087
:1035D00045FA58B140F22551144800F017FA134843
:1035E000001D0088C4B22046FEF740F840F2277163
:1035F0000E4800F033FAC0B10D4801780078401C45
:103600000B4A10700B48405C0849091D08801046A1
:10361000007809490978884207D104480C300088AD
:1036200020F0800001490C31088010BD00440040AA
:10363000C4010020A4060020E802002010B51D48A7
:10364000008800F0080018B11A48001D0088C4B2B4
:1036500040F22551174800F001FA58B140F22551C7
:10366000144800F0D3F91348001D0088C4B2204666
:10367000FDF7FCFF40F227710E4800F0EFF9C0B1F2
:103680000D4801780078401C0B4A10700B48405CD4
:103690000849091D088010460078094909788842C0
:1036A00007D104480C30008820F0800001490C311B
:1036B000088010BD00480040C4010020A40600207E
:1036C000E802002010B500BFAF480168AF4800F025
:1036D000E3FD00BF40F22551AD4800F0BFF90028DE
:1036E0007DD040F22551AA4800F090F9A84800F09A
:1036F0006FFAC1B2A748A84A12788154A64909783E
:10370000405C03286CD1A4480078401EA149085CA5
:10371000FC28F7D1A04800780A38085C0328F1D1CA
:103720009D4800780938085CFC28EBD101209B49B2
:1037300008709B4908709B4800789B490870964820
:103740000078801E9349085C96490870924800787A
:10375000001F9049095C90480078C01E8D4A105C9B
:1037600041EA002000B2914908808B480078801F10
:103770001146095C88480078401F105C41EA00202F
:1037800000B28B4908808448007808381146095CEB
:1037900081480078C01F105C41EA002000B28549D2
:1037A000088000207C49087083480088401C00B2D3
:1037B0008149088081480078002811D0804800782D
:1037C00000F0A2FC7F4880ED000A7F48D0ED000A9F
:1037D0007C4890ED000A00F045FC7C4801E0D1E017
:1037E000C5E080ED000A90ED000A7948D0ED000AAE
:1037F00030EE600A774880ED000A744890ED000AC8
:10380000734880ED000A7148D0ED000A7248B0F9A3
:10381000000000EE100AB8EEC00AF4EEC00AF1EEA5
:1038200010FA0ADD6C48B0F9000000EE100AB8EE9C
:10383000C00A664880ED000A1AE06448D0ED000A2C
:103840006548B0F90000404200EE100AB8EEC00A28
:10385000F4EEC00AF1EE10FA0AD25F48B0F90000A7
:10386000404200EE100AB8EEC00A584880ED000A47
:10387000584890ED000A5948D0ED000A20EE200A81
:10388000574880ED000A90ED000ADFED560AB4EECD
:10389000E00AF1EE10FA02DD90ED000A01E09FED82
:1038A000510ADFED510AB4EEE00AF1EE10FA0FD240
:1038B0004B4890ED000ADFED4B0AB4EEE00AF1EE62
:1038C00010FA02DD90ED000A04E09FED460A01E0E7
:1038D0009FED450A424880ED000A3C4890ED000A01
:1038E0003F48D0ED000A30EE200A384880ED000A4B
:1038F0002C480078FF280ED1324890ED000A33485A
:10390000D0ED000A394890ED001A00EE810A3848DF
:1039100080ED000A05E0374890ED000A344880ED5C
:10392000000A35480078B0B134483549D1ED000A75
:10393000344991ED000A00F078FC30482C4991EDB3
:10394000000A00F03DFC00EE100AB8EEC00A2E4856
:1039500080ED000A05E0264890ED000A2A4880ED37
:10396000000A184890ED000A174880ED000A0A483E
:103970000078401C0849087008460078FF2801D1EB
:103980000020087010BD0000240300201802002051
:1039900000140140EC0400202E020020160000203C
:1039A00017000020E0010020E101002014000020A9
:1039B0000A00002008000020E20100207000002022
:1039C00015020020E4010020E80100204000002052
:1039D000F4010020F0010020480000200002002037
:1039E000F8010020000048C30000484308020020FE
:1039F000EC010020A800002014020020AC030020ED
:103A0000100200200C0200207800002010B50022D7
:103A1000002340F66A14A14200D100BF0A1201241B
:103A20009440A3B2DC43048010BD21B1828942F4EA
:103A30000052828104E082894DF6FF731A40828130
:103A4000704702460020B1F5007F00D100BF138807
:103A50000B400BB1012000E00020704770B502461A
:103A6000002400230025002040F66A16B14200D150
:103A700000BFC1F3421501F01F03012606FA03F34C
:103A8000012D02D19689334006E0022D02D1168A1B
:103A9000334001E0968A33400C12012606FA04F402
:103AA0001688344013B10CB1012000E0002070BD35
:103AB000F0B50346002400260025002040F66A17D2
:103AC000B94200D100BF1846C1F3421401F01F06ED
:103AD000012707FA06F5012C01D10C3004E0022C75
:103AE00001D1103000E014301AB107682F4307608D
:103AF00002E00768AF430760F0BD00002DE9FF4713
:103B000005460E460024A14600BFA046B08900B17C
:103B100000BF2C8A24F44054F08804432C82AC89E2
:103B200041F20C608443B0883189084371890843AD
:103B30000443AC81AC8A24F44074B0890443AC8261
:103B40006846FFF7B5F92048854202D01F488542F4
:103B500002D1DDF80C9001E0DDF80890A88900F4AE
:103B6000004040B109EBC90000EB09103168490081
:103B7000B0FBF1F707E009EBC90000EB0910316871
:103B80008900B0FBF1F76420B7FBF0F004012009D5
:103B9000642101FB1078A88900F4004040B1322074
:103BA00000EBC800B0FBF1F000F00700044308E0B0
:103BB000322000EB08106421B0FBF1F000F00F00A0
:103BC00004432C81BDE8FF87001001400014014030
:103BD00001468888C0F308007047C1F3080282805C
:103BE0007047000002A0FCF79DFB00BFFEE700004D
:103BF00055736167654661756C745F48616E646C8E
:103C000065720D0A0000000003B40198410000989D
:103C100050EAC12018BF04204A0D18BF40F001002F
:103C200040F2FF72B2EB515F08BF40F00200012882
:103C300008BF052002B0704730380A2801D20120A1
:103C4000704700207047014600BF70470146087862
:103C5000704770B504460D4600F008F800F032F8E1
:103C60002946204600F04CF870BD00001CB501212B
:103C70000220FFF7DDF801218806FFF7E9F80121AE
:103C80004806FFF7E5F8092205210D48FEF76EFD0D
:103C9000092206210A48FEF769FD602000900220F3
:103CA0008DF8040003208DF8050000208DF8060033
:103CB0008DF8070069460248FEF710FD1CBD0000A4
:103CC0000004024008B540208DF8000000208DF867
:103CD00001008DF8020001208DF803006846FEF710
:103CE000D7FF3F208DF8000000208DF801008DF8EF
:103CF000020001208DF803006846FEF7C9FF08BDE9
:103D000030B587B005460C462548FEF747F904A8AC
:103D1000FEF77FFB00208DF816008DF817008DF858
:103D200018008DF819008DF81A0001208DF81B007D
:103D300000208DF812008DF8130008208DF8140073
:103D400003208DF81500ADF8100004A91448FEF703
:103D50005EFA0E208DF80A0000208DF80B0001207D
:103D60008DF80C00ADF80050ADF802400020ADF821
:103D70000400ADF80600ADF8080001208DF80D0034
:103D80006846FEF727F9012202210548FEF736FAB8
:103D9000012211460248FEF731FA07B030BD00009B
:103DA0000068004030B50B46036000240472447282
:103DB00008248472002104E0555C00F10B04655472
:103DC000491C0829F8D330BD10B588B000BF184889
:103DD000B0F900000A2190FBF1F400BF00208DF83B
:103DE00018008DF81900134800788DF81A00114852
:103DF0000088000A8DF81B00E0B28DF81C00200A34
:103E00008DF81D000C4800788DF81E000A480088C7
:103E1000000A8DF81F0006AA40F2112101A8FFF741
:103E2000C1FF01A90548FEF704FB08B010BD000062
:103E30003C0100203E0100204401002000640040BD
:103E40002DE9F04105460F462C464FF0000894F846
:103E50000280B8F1050F01D1667900E0267932467B
:103E60004146204601F05CF840B13878E17888425C
:103E700002D10120BDE8F0810020FBE70020F9E736
:103E800010B5B1F57A7F0ADA41F618444368A342C7
:103E900005D9002A03DD03685B1C03600CE041F6D2
:103EA0001843994208DD4368B3F57A7F04D2002AAB
:103EB00002DA03685B1E0360416010BDB1F57A7FD2
:103EC00008DA41F6184342689A4203D90268521C44
:103ED00002600AE041F61842914206DD4268B2F5FE
:103EE0007A7F02D20268521E026041607047000071
:103EF00000BF642801D9642001E000B9012000BF9F
:103F0000411E104A11600F492439098841F001010E
:103F10000C4A243A118000BF0A491439098801F07B
:103F200001010029F8D04FF6FE71064A143A1180BB
:103F300004492439098821F00101024A243A1180F8
:103F4000704700002448014070B504460D4600BF8C
:103F5000206818B9002001F099FAF9E700F074F927
:103F60002946204600F009F800F098F970BD10B518
:103F70000446204600F008F810BD4268116042680F
:103F80004A60086041607047006040607047D0E957
:103F900000215160D0E900121160002101604160F0
:103FA00070477047704700001CB501210220FEF7E2
:103FB0003FFF4FF40070009001208DF804000020B6
:103FC0008DF8060002208DF8050000208DF807000E
:103FD00069460248FEF782FB1CBD00000004024057
:103FE00070B504460D46164890F8500048B1154883
:103FF000007830B1E1B214480068283000F053FD79
:104000001CE01248006868B111480068B0F5007FF4
:1040100014D20F4802680068401C0D4B18600D4810
:1040200084540BE000BF0C480068008800F040009A
:104030000028F8D0E0B2084909688880204670BDA1
:1040400060310120280300201C03002050030020C1
:1040500054030020C8310120C802002001460A464E
:104060009078704710B52DED048BB0EE408AF0EEDD
:10407000608A9FED1D0AB0EE409A1C480078FF2828
:104080000DD11B480078FF2809D138EE680A19487D
:10409000D0ED000A20EE200AB0EE409A08E0164863
:1040A00090ED000AF6EE000A20EE200AB0EE409AEB
:1040B000114880ED009A11481149D1ED000A1149CB
:1040C00091ED000A00F0B1F80C48B0EE490A00F09A
:1040D00077F800EE100AB8EEC00AB0EE409AB0EEE3
:1040E000490ABDEC048B10BD00000000E001002077
:1040F000E1010020380000206C0000208C0300202B
:104100005C0000205800002010B52DED028B044605
:10411000214890ED000A2148B0F9000000EE900A15
:10412000F8EEE00A1E4890ED001A00EE810A1D48E4
:10413000D0ED000A30EEC00A1B4880ED000A1B4893
:10414000007850B9184890ED000A194880ED000A2F
:1041500016480078401C1549087000BF15481649DC
:10416000D1ED000A154991ED000A00F05EF8114802
:104170000D4991ED000A00F023F800EE100AB8EEA8
:10418000C08A24B1B0EE480ABDEC028B10BD0648CF
:1041900090ED000AF8E700002C0000200800002045
:1041A00020000020000000204C00002065000020BE
:1041B000680000206C030020540000205000002004
:1041C000F0EE400A014691ED043AB0EE431A91ED4B
:1041D000043AB0EE431A91ED053AD1ED013A33EECF
:1041E000233AB0EE430A91ED023A33EE003AC0EEC4
:1041F000033AB0EE632A70EEC13AB0EE413A02EEF5
:10420000233AF0EE431AB7EE003A33EE423A23EE89
:10421000003AF0EE432AC1ED052AC1ED041ABDEEC5
:10422000E13A13EE100A00B27047C0ED020A80EDC9
:10423000010A7047024803490860002070470000E7
:104240000D5A0008F402002010B500BFEFF31080F3
:1042500009490A4A127841F8220072B607480078E4
:10426000401C06490870084600780F2802DD04A0AB
:10427000FCF758F810BD0000A4070020F002002051
:1042800069727120636C6F73656420746F6F206D49
:104290007563680D0A0000007047000010B50A48F9
:1042A000007810B909A0FCF73DF807480078401ED7
:1042B000054908700B49044A127851F8220080F32E
:1042C000108800BF10BD0000F0020020697271204C
:1042D000726573746F72656420746F6F206D75639F
:1042E000680D0A00A4070020B0F90030934200DDF9
:1042F0000280B0F900308B4200DA01807047000084
:104300001CB54FF4E131052000F06AFC00F08CF997
:1043100096204FF4707101230022CDE900100DA109
:104320000F4800F0E9FE00F01BFA00BFFFF78CFF1A
:1043300000200C4981F850000BA0FBF7F3FF0CA004
:10434000FBF7F0FF10220FA112A0FBF7EBFF00BF5D
:10435000FEE700007461736B5F696E6974000000B2
:10436000E9550008603101206572726F723A2000D1
:10437000676F206261636B20746F206D61696E0DE1
:104380000A0000002E2E5C757365725C6D61696EAB
:104390002E6300000D0A46494C453A2025732C2017
:1043A0004C494E453A2025640D0A00002DE9F041A4
:1043B00006460F4634463D4600BF14F8011B25292A
:1043C00002D05C2955D12DE014F8011B642914D0CA
:1043D00004DC25291DD063291FD104E0662910D0F3
:1043E00073291AD104E015F8040B00F0FBF817E06C
:1043F000286800F0ECF82D1D12E001CD00F0BCF8AB
:104400000EE0D5ED000AB0EE600A00F03DF82D1D7B
:1044100006E0252000F0E6F802E00020BDE8F0818B
:1044200000BF2BE014F8011B6E290AD004DC3029F0
:104430000FD03F2919D110E0722906D0742914D168
:104440000FE00A2000F0CEF811E00D2000F0CAF8CD
:104450000DE0002000F0C6F809E03F2000F0C2F8AF
:1044600005E0092000F0BEF801E00020D6E700BF1B
:1044700004E014F8010C00F0B5F800BF00BF20788C
:1044800000289AD10120C9E770B52DED028BB0EE5E
:10449000408A0025002418EE100AC0F3C7507F3868
:1044A000C00F00283ED118EE102AC2F3C752A2F165
:1044B0007F00304901228240154413E000B912E028
:1044C000401E18EE102AC2F3C7527F3AC2F11702FB
:1044D000131818EE102ADA4002F00103012282407C
:1044E00003FB0255EAE700BF19E018EE102AC2F3F9
:1044F000C7527F3A0244102A00D311E0401C4908F9
:1045000018EE102AC2F3C7527F3AC2F11702131AEB
:1045100018EE102ADA4002F0010202FB0144E4E73F
:1045200000BF1BE01348002118EE102AC2F3C75247
:10453000C2F17F02D04004440DE04008C1F11603EF
:1045400018EE102ADA4002F0010202FB00441029A2
:1045500000D101E0491CF0E700BF00BF284600F091
:104560000BF82E2000F03EF8204600F005F8BDECD8
:10457000028B70BD40420F00FEB50446002524F0BA
:10458000004604F000471CB9302000F02BF8FEBDB7
:1045900017B12D2000F026F80CE00A20B6FBF0F150
:1045A00000FB1160303029466D1C0DF801000A2017
:1045B000B6FBF0F6002EF0D105E0691E0D461DF8A1
:1045C000010000F00FF8002DF7D100BFDFE710B5B4
:1045D000044603E014F8010B00F004F820780028EA
:1045E000F8D110BD10B504462146034800682830B4
:1045F00000F059FA10BD00001C030020002208E062
:10460000084800EBC2010868884200D005E0501C51
:10461000C2B2062AF4DD002070470968A1F1100338
:104620001846F9E7603101201CB530A0FBF77AFE8F
:10463000002000F01BF9022000F018F9002406E029
:104640002E4901EBC400FFF79FFC601CC4B2062C8E
:10465000F6DD2A483830FFF797FC28484030FFF74E
:1046600093FC26484830FFF78FFC4FF44070FEF76C
:104670004BFB012001F000FAFFF7DCFD2048FFF7BB
:1046800083FC96204FF4707100231A46CDE9001088
:104690001CA11F4800F030FD0120184981F850008E
:1046A00096204FF4C87105230022CDE9001019A10E
:1046B0001C4800F021FD96204FF470710623002263
:1046C000CDE9001018A11B4800F016FD96204FF40C
:1046D000707105230022CDE9001017A1194800F0E0
:1046E0000BFD19A0FBF71EFE1CBD00006D616B6F7A
:1046F000735F696E69740D0A00000000603101206B
:104700002C0300207461736B5F5052494E540000BB
:104710008D5000087461736B5F7265736F6C7665A2
:1047200072000000155900087461736B5F69646C56
:1047300065000000C55400087461736B5F726563A7
:104740006F726400BD5800086D616B6F735F696EB6
:1047500069742066696E69736865640D0A000000FB
:1047600010B5002080F3098800BFFF200A490870B7
:10477000FFF744FF094908600846006808490860D7
:1047800008A0FBF7CFFD01F09FF94FF080500249E0
:104790001E39086010BD000022ED00E01C0300205F
:1047A000200300206D616B6F73207374617274203D
:1047B00072756E6E696E670D0A00000010B5FFF726
:1047C00043FDFFF71BFF044614B908A0FBF7AAFD41
:1047D0000A480068844205D0094804604FF08050C0
:1047E00008490860FFF75AFD10BD00006E6F207485
:1047F00061736B2072656164790D0A001C030020EF
:104800002003002004ED00E01CB50446012160688F
:10481000FEF70EFB2089009001208DF80400002097
:104820008DF8060003208DF8050000208DF80700A4
:1048300069462068FDF752FF204600F001F81CBDD4
:1048400010B50446608920B121892068FDF7BAFFC0
:1048500003E021892068FDF7B7FF10BD10B50446BD
:1048600021892068FDF7B2FF10BD000010B5044695
:104870000C4951F824104A000B4951F8240000213A
:1048800000F08AF8094951F8242007490C3951F8F9
:104890002400002100F080F8012103480C3001556C
:1048A00010BD0000C45E00080C030020DC5E0008A0
:1048B0002DE9F04704460F460025A9462348005D30
:1048C00020B9224820380168204688471FB94FF098
:1048D000FF30BDE8F0871E4850F82400B7FBF0F623
:1048E0001B4850F82400B7FBF0F100FB117000B139
:1048F000761C184850F82400451E22E013480C3856
:1049000050F8240030F8150010B909F1010901E050
:104910004FF00009B14513D14FF0000809E00B48F2
:104920000C3850F8240005EB080220F8126008F15A
:104930000108B045F3D3064850F824006843C8E79F
:104940006D1E002DDADA4FF0FF30C2E718030020A9
:10495000D05E0008C45E000810B5014600230022A6
:1049600007E00B4850F8210030F8120000B15B1C42
:10497000521C084850F821009042F2D86420584355
:10498000044C54F82140B0FBF4F0C0B210BD00005C
:104990000C030020C45E000830B5034601E003F8B4
:1049A000011B1400A2F10102F9D130BD70B504461B
:1049B0000E4631462046FFF77BFF0546681C08B9C6
:1049C000002070BD024850F824002844F9E7000098
:1049D0000003002070B504460D46606898B100BF22
:1049E000FFF732FC00200E4981F850000DA0FBF7C4
:1049F00099FC0E48FBF796FC08220DA114A0FBF7CA
:104A000091FC00BFFEE7258029460020FFF7CEFF7E
:104A100060606068A0606068E0600020208270BD17
:104A2000603101206572726F723A2000E85F000801
:104A30002E2E5C4D414B4F535C6B65726E656C5C0A
:104A40006D616B6F735F706970652E6300000000AD
:104A50000D0A46494C453A2025732C204C494E45B9
:104A60003A2025640D0A000070B5044600BF606856
:104A700018B9002000F00AFDF9E7208A08B90020E3
:104A800070BD208A401E2082E0680578E068401CE6
:104A9000E060218860680844E168884201D160686C
:104AA000E0602846ECE770B504460D4600BF60683C
:104AB00018B9002000F0EAFCF9E7208A401C2082A7
:104AC000A0680570A068401CA06021886068084448
:104AD000A168884201D16068A060208A218888424C
:104AE00003DD20882082A068E06070BD70B50546B7
:104AF0000E4614210020FFF759FF0446A560E6602A
:104B000021460248FFF720FA70BD0000480300204C
:104B100010B50748FFF72BFA20210648FFF75AFF88
:104B2000012240F2255104480068FEF7C1FF10BD84
:104B300048030020B4310120C802002000B589B02C
:104B40001FA0006802901FA0006801901E48B0F9E5
:104B5000000008901D48B0F9000007901C48B0F90B
:104B6000000006901B48B0F9000005901A48B0F903
:104B7000000004901448B0F900000390022102A83C
:104B800000F0C0FF022108A800F0BCFF022107A826
:104B900000F0B8FF022106A800F0B4FF022105A82A
:104BA00000F0B0FF022104A800F0ACFF022103A82E
:104BB00000F0A8FF022101A800F0A4FF09B000BD89
:104BC00003FC0000FC030000440100204001002021
:104BD000480100203C0100203E01002070470000F9
:104BE00030B587B004460D46AC48006818B1ACA09B
:104BF000FBF798FB02E00120A84908600CB900BF50
:104C0000FEE7012C2DD101210846FEF711F9012103
:104C10001020FEF73DF907220921AB48FDF7A6FD5C
:104C200007220A21A848FDF7A1FD4FF4C0600190BA
:104C300002208DF8080000208DF80A0003208DF86E
:104C4000090000208DF80B0001A99F48FDF746FDE3
:104C50009E489F49086025208DF800009D489E4988
:104C60000860022C2CD101210820FEF7E1F8012177
:104C70004804FEF7EDF8072205219848FDF776FD78
:104C8000072206219548FDF771FD60200190022062
:104C90008DF8080001208DF80A0003208DF8090026
:104CA00001208DF80B0001A98C48FDF717FD8C48F9
:104CB0008749086026208DF80000864889490860E9
:104CC000032C2CD101210420FEF7B2F80121880425
:104CD000FEF7BEF807220A218348FDF747FD0722A9
:104CE0000B218148FDF742FDA002019002208DF8C2
:104CF000080000208DF80A0003208DF8090000202C
:104D00008DF80B0001A97848FDF7E8FC7748704959
:104D1000086027208DF800006E4875490860042C53
:104D20002CD101210846FEF783F80121C804FEF7C3
:104D30008FF8082200216448FDF718FD08220121A0
:104D40006148FDF713FD0320019002208DF8080053
:104D500000208DF80A0003208DF8090000208DF84E
:104D60000B0001A95848FDF7B9FC62485849086092
:104D700034208DF8000057485F490860052C37D172
:104D800001210420FEF754F801210820FEF750F815
:104D900001210805FEF75CF808220C215248FDF7B6
:104DA000E5FC082202214D48FDF7E0FC4FF480505D
:104DB000019002208DF8080000208DF80A000320E1
:104DC0008DF8090000208DF80B0001A94648FDF779
:104DD00085FC0420019001A94048FDF77FFC47486D
:104DE0003B49086035208DF800003A484449086086
:104DF000062C2CD101210420FEF71AF801212020D5
:104E0000FEF746F8082206213748FDF7AFFC0822D6
:104E100007213548FDF7AAFCC020019002208DF83B
:104E2000080000208DF80A0003208DF809000020FA
:104E30008DF80B0001A92C48FDF750FC314824499E
:104E4000086047208DF8000022482F49086003952C
:104E50000020ADF818000C20ADF816000020ADF8C9
:104E60001400ADF81200ADF8100003A9184800684E
:104E7000FEF744FE012116480068FEF7D6FD022029
:104E80008DF8010000208DF8020001208DF803004C
:104E90006846FDF7FDFE07B030BD0000E4020020CB
:104EA00073657269616C5F696E697428292063613A
:104EB0006E2774206265206578637574656420745C
:104EC000776963650D0A0000000002400010014090
:104ED000C8020020DD4B0008CC020020000C02407C
:104EE00000440040D002002000080240004800407A
:104EF000D4020020004C0040D802002000500040A6
:104F0000DC02002000140140E002002001680229B8
:104F100002D8024A01681160704700003403002083
:104F200030B503460C4600250021022104E0585C00
:104F30002844C5B2481CC1B2A142F8DB954201D158
:104F4000012030BD0020FCE72DED068BFDF7ACFD08
:104F5000FEF722F84FF4FA6000F098FA4FF400419F
:104F60003D48FDF731FC9FED3D0AB0EE408A72E00E
:104F700004218020FDF7D0FD3949088002218020DE
:104F8000FDF7CAFD3749088003218020FDF7C4FDE5
:104F9000354908803248B0F9000000F006FE41ECC7
:104FA0001A0B9FED320B53EC102B00F015FE41EC69
:104FB000190B00F0CBFD00B22E4908802948B0F94A
:104FC000000000F0F2FD41EC1A0B9FED2B0B53ECAF
:104FD000102B00F001FE41EC190B00F0B7FD00B200
:104FE000274908802048B0F9000000F0DEFD41ECC0
:104FF0001A0B9FED210B53EC102B00F0EDFD41EC53
:10500000190B00F0A3FD00B21E490880B7EE000A9C
:1050100070EE480A1C48B0F9000000EE100AB8EE25
:10502000C00A20EE800A1348B0F9000000EE900A92
:10503000F8EEE00A00EE880ABDEEC00A10EE100A93
:1050400000B20C4908800846B0F900000E490880FB
:10505000012000F01BFA8BE7000002403333333F9E
:105060003401002036010020380100201F85EB515B
:10507000B81EDD3F3C010020000000000000C03FE2
:105080003E010020400100203A0100201848056838
:105090002CE01748854225D0A5F13C0606F12804EE
:1050A00000BF208A08B300BF12480068008800F0E3
:1050B000400018B9002000F0E9F9F5E7E068007851
:1050C0000C4909688880E068401CE06021886068BD
:1050D0000844E168884201D16068E060208A401E8F
:1050E0002082DEE7002000F0D1F92D68D1E7000032
:1050F0002C030020C80200202DE9F04706460F4689
:1051000090461D46DDE9089A54210020FFF74EFC29
:105110000446676409F0030028B1B9A0FBF702F95F
:105120000020BDE8F087C4F84C900020E16CFFF748
:105130003DFC20650122D4E91310C2EB910100EB84
:105140008100001D20600120207165710020A06099
:1051500001202073B64901EBC50004F11001FEF7F0
:105160000CFF04F12001B2484830FEF706FF1FFA99
:105170008AF104F12800FFF72DFC04F13C01AD4851
:10518000FEF7FBFE00212068001F206001604FF445
:1051900080512068001F206001604FF015312068A9
:1051A000001F206001604FF014312068001F206054
:1051B00001604FF013312068001F206001604FF044
:1051C00012312068001F206001604FF0113120680B
:1051D000001F206001604FF010312068001F206028
:1051E00001604FF009312068001F206001604FF01E
:1051F00008312068001F206001604FF007312068EF
:10520000001F206001604FF006312068001F206001
:1052100001604FF005312068001F206001604FF0F1
:1052200004312068001F206001604FF003312068C6
:10523000001F206001604FF002312068001F2060D5
:10524000016049102068001F206001600021206873
:10525000001F206001604FF080712068001F2060F7
:1052600001602068001F206006606FF01201206856
:10527000001F206001604FF012312068001F206085
:1052800001604FF003312068001F206001604FF083
:1052900002312068001F2060016049102068001F53
:1052A000206001602068001F2060C0F800804FF07F
:1052B00031312068001F206001604FF030312068DC
:1052C000001F206001604FF029312068001F20601E
:1052D00001604FF028312068001F206001604FF00E
:1052E00027312068001F206001604FF026312068C0
:1052F000001F206001604FF025312068001F2060F2
:1053000001604FF024312068001F206001604FF0E1
:1053100023312068001F206001604FF02231206897
:10532000001F206001604FF021312068001F2060C5
:1053300001604FF020312068001F206001604FF0B5
:1053400019312068001F206001604FF0183120687B
:10535000001F206001604FF017312068001F20609F
:1053600001604FF016312068001F206001604FF08F
:1053700011312068001F206001604FF0103120685B
:10538000001F206001604FF009312068001F20607D
:1053900001604FF008312068001F206001604FF06D
:1053A00007312068001F206001604FF0063120683F
:1053B000001F206001604FF005312068001F206051
:1053C00001604FF004312068001F206001601AA0C6
:1053D000616CFAF7A7FF21461BA0FAF7A3FF1EA0F6
:1053E000216DFAF79FFF0123D4E91320C3EB92024A
:1053F00000EB82011EA0FAF795FF204691E600001F
:105400006572726F72212121207468652073746146
:10541000636B5F73697A65206D75737420626520B4
:10542000616C69676E207769746820340D0A00002A
:10543000603101202C0300202A2A2A2A25732A2AD7
:105440002A2A2A0D0A0000006E65772070746362B4
:105450003A2025780D0A00006E657720707463622B
:1054600020737461636B3A2025780D0A00000000F8
:10547000737461636B277320656E6420616464726A
:105480006573732069733A25780D0A0010B50446D8
:10549000FEF7DAFE094800688460084800681030AA
:1054A000FEF775FD0548016810310548FEF765FDFA
:1054B000FFF784F9FEF7F2FE10BD00001C03002088
:1054C000983101202DED028B82B0002600240025AA
:1054D00000279FED340A10EE108A334933A0FFF7FE
:1054E00005FB5EE032480068841BC4B14FF0E02049
:1054F0008069054426442744B7F57A7F0FD900EE2A
:10550000105AB8EE400A9FED2B1AC0EE010A9FED2B
:105510002A0A30EE600A10EE108A0025002727487C
:105520000068002830D0224800684FF47A71B0FB40
:10553000F1F201FB1200322826D22148006818B38C
:1055400000BF002001900DF10409C9F80080FEF7AA
:105550007BFE01A91BA0FEF729FFFEF79FFE00BFFF
:10556000404600F037FC41EC180B53EC182B1AA006
:10557000FAF7D8FE11480068022802D100200F492E
:10558000086000200E490860094800684FF47A71ED
:10559000B0FBF1F201FB1200642802D90120084996
:1055A00008609FE7000000000D4F00086370750061
:1055B000240300200014CD490000C8423403002019
:1055C000380300206370752075736167653A202584
:1055D0006625250D0A0000006370752075736167EC
:1055E000653A25660D0A00001CB5FDF741F842F248
:1055F000CF0142F21070FDF70BFE41F204010020D2
:10560000FCF7B4F841F204010020FEF722FBC820A9
:10561000FFF73CFF00BFFEF717FE96204FF47071B6
:1056200002230022CDE9001019A11F48FFF764FDF5
:10563000FEF734FE00BF00BFFEF706FE96204FF4D3
:10564000707102230022CDE9001018A11C48FFF759
:1056500053FDFEF723FE00BF00BFFEF7F5FD9620C9
:105660004FF4707102230022CDE9001015A11B48F0
:10567000FFF742FDFEF712FE00BF1948006800F078
:10568000B1F903E04FF47A70FFF700FFFAE700008A
:10569000287461736B5F66297461736B5F6C6564FA
:1056A0005F73797300000000E55600082874617389
:1056B0006B5F66297461736B5F494E41323236000D
:1056C000494F0008287461736B5F66297461736BBE
:1056D0005F70776D5F70696400000000015700081B
:1056E0001C0300200548FFF78FF806E00348FFF78A
:1056F000B5F84FF4FA70FFF7C9FEF7E7540200203F
:105700001CB54FF4FA60FFF7C1FE00BFDFED4E1A83
:105710009FED4E1ADFED4E0A9FED4E0A4E48FDF703
:10572000FDFA00BFFEF790FD96204FF47071022342
:105730000022CDE9001049A14E48FFF7DDFCFEF73D
:10574000ADFD00BF00BFFEF77FFD96204FF47071E6
:1057500002230022CDE9001047A14D48FFF7CCFC01
:10576000FEF79CFD00BFFEF71FFC002140F28F609A
:10577000FDF778FD002140F28F60FDF7EDFC4FF45E
:1057800000714448FDF720F85DE04348B0F900009F
:10579000424908804248B0F9000040F2DC5188429A
:1057A00021DD9FED2B0A2C4880ED010A9FED3D0A7B
:1057B00080ED020A3C48B0F9000000EE100AF8EE55
:1057C000C00A3648B0F9000000EE100AB8EEC00A70
:1057D0002148FDF7BFFABDEEC00A10EE100A00B274
:1057E0003249088020E09FED1B0A1B4880ED010A2A
:1057F0009FED170A80ED020A2D48B0F9000000EE77
:10580000100AF8EEC00A2B48B0F9000000EE100AAA
:10581000B8EEC00A1048FDF79DFABDEEC00A10EEC2
:10582000100A00B22149088040F236620A211F485E
:10583000FEF75AFD1D48B0F900101F48FDF70BFE9A
:105840000120FFF723FEA0E700C0C64400000000CF
:105850000AD7A33C6F12033CCC0300202874617369
:105860006B5F66297461736B5F73656E645F7761EC
:1058700076650000D7590008287461736B5F66294C
:105880007461736B5F73656E645F63616E000000CB
:10589000C95900080004024074010020440100209E
:1058A0003E0100200AD7233D40010020480100208E
:1058B0003C010020460100200044014012E00A485B
:1058C000006801280BD16420FFF7E0FD07A0FAF77C
:1058D00029FD0BA0FAF726FD00200349086064208B
:1058E000FFF7D4FDEBE70000580300200D0A7265B6
:1058F000636F72642062756666203A0D0A000000CC
:105900000D0A7265636F7264206275666620656E4B
:10591000640D0A0008B5FFF7FBF8294D4EE000BF03
:105920002848FFF7A1F804461CB90020FFF7AEFD98
:10593000F6E75A2C0AD1A52F08D12248007B401E39
:1059400020490979401A401E00F0FF092746AA2C79
:1059500034D11B4805680DE02E461A4AB1685068DC
:10596000FEF76EFA28B117494868FEF777FB8046C4
:1059700003E02D6812488542EED100BF10488542F1
:1059800013D0B8F1040F05D14FF0000A5046F1686A
:1059900088470AE00B4949684944081DFEF756F953
:1059A0000090EA465046F168884706484068054935
:1059B000886008464068C86000200882AFE70000A1
:1059C00048030020B431012004E0FEF7FDF9052072
:1059D000FFF75CFDF9E704E0FFF7B0F80120FFF7FF
:1059E00055FDF9E710B50446FEF72EFC04F1100052
:1059F000FEF7CDFA04F110010348FEF7BEFAFEF7F8
:105A0000DDFEFEF74BFC10BDA03101201CB5FEF7FA
:105A10001BFC17480068401C154908601548806B3E
:105A200001901AE001980090019800680190009898
:105A3000A0F11004A06810B1A068401EA060A0688A
:105A400058B904F11000FEF7A2FA6179094A02EB95
:105A5000C10004F11001FEF790FA064838300199B0
:105A60008142DFD1FEF71AFCFEF7A8FE1CBD000044
:105A7000240300206031012030B502460F4902FBAB
:105A800001F0401E4FF0E021486100208861401E77
:105A9000FF21002807DA0B071D0E094B00F00F0449
:105AA000241F1D5503E00B071C0E064B1C5400BFA2
:105AB00004204FF0E021086130BD0000409002005A
:105AC00018ED00E000E400E04FF0E020006940F055
:105AD00001004FF0E02108610846006940F0020033
